:0A0000000C9432000C9400000C94E4
:10000A0000000C9400000C9400000C9400000C9466
:10001A0000000C9400000C9400000C9400000C9456
:10002A0000000C945F000C9400000C9400000C94E7
:10003A0000000C9400000C9400000C9400000C9436
:10004A0000000C9400000C940000065B4F666D7D66
:10005A000000020004005A000000F894EE27ECBBEE
:10006A00F1E0FBBFEBBFE5BF8DE0A2E0BB27ED935C
:10007A008A95E9F780E098E0A0E6ED930197E9F721
:10008A00ECE5F0E085919591009761F0A591B59125
:10009A0005901590BF01F00105900D920197E1F7C7
:1000AA00FB01F0CFEFE5EDBFE8E0EEBFC0E6D2E03E
:1000BA000C949A00EA93FA93EFB7EA93E3E8E2BF63
:1000CA00C89902C066247724C99903C0E1E0F0E028
:1000DA003F01CA9903C0E2E0F0E03F01CB9903C0B7
:1000EA00E3E0F0E03F01CC9903C0E4E0F0E03F0137
:1000FA00B09902C066247724B19903C0E1E0F0E028
:10010A003F01B29903C0E2E0F0E03F01B39903C0B6
:10011A00E3E0F0E03F01B49903C0E4E0F0E03F011E
:10012A00E991EFBFF991E9911895E0E0EABBEBBBE1
:10013A00E7BBE8BBEFEFE4BBE0E0E5BBE7E0E1BB30
:10014A00E0E0E2BBE2E0E3BFE3E8E2BFE0E0ECBF0D
:10015A00EFBDEEBDEDBDECBDE7BDE6BDEBBDEABD55
:10016A00E9BDE8BDE2BDE5BDE4BDE3BDE1E0E9BF4F
:10017A00E0E0E5BFE4BFEAB9E0E8E8B9E0E0E0BF03
:10018A00E6B9EDB9E6BF7894062C072869F4641439
:10019A0075042CF46414750414F470D0FBCF641441
:1001AA00750409F476D0F0CFE1E0F0E0E615F70542
:1001BA00A9F4641475042CF46414750414F45ED060
:1001CA00FBCF6414750409F464D0461457042CF464
:1001DA004614570414F467D0FBCFE6CFE2E0F0E010
:1001EA00E615F705A9F4641475042CF4641475046F
:1001FA0014F444D0FBCF6414750409F44AD04614AD
:10020A0057042CF44614570414F44DD0FBCFE6CF10
:10021A00E3E0F0E0E615F705A9F4641475042CF49C
:10022A006414750414F42AD0FBCF6414750409F419
:10023A0030D0461457042CF44614570414F433D01F
:10024A00FBCFE6CFE4E0F0E0E615F70569F46414C5
:10025A00750409F41ED0461457042CF446145704A6
:10026A0014F421D0FBCFEECF8FCFFFCF909A919885
:10027A00A0EDB7E00E94630190980895F2013197CA
:10028A002F01EC5AFF4F049005BAA8EEB3E00C9484
:10029A006301ECDFF201EC5AFF4F049005BAA8EEB5
:1002AA00B3E00C946301F20131962F01EC5AFF4F2F
:1002BA00049005BAA8EEB3E00C946301109639F0E5
:1002CA008AEF90E00197F1F7A8951197C9F7089579
:00000001FF
