:0C0000000C9437000C9400000C940000DD
:10000C000C9400000C9400000C9400000C94000064
:10001C000C9400000C9464000C9400000C940000F0
:10002C000C9400000C9400000C9400000C94000044
:10003C000C9400000C9400000C9400000C94000034
:10004C000C9400000C9400003F065B4F666D7D071E
:10005C007F6F0000000000000000080004005E003C
:10006C000000F894EE27ECBBF1E0FBBFEBBFE5BF63
:10007C008DE0A2E0BB27ED938A95E9F780E094E050
:10008C00A0E6ED930197E9F7E6E6F0E0859195910E
:10009C00009761F0A591B59105901590BF01F00105
:1000AC0005900D920197E1F7FB01F0CFEFE5EDBF65
:1000BC00E4E0EEBFC0E6D1E00C947400EA93FA934E
:1000CC00EFB7EA93EBE0EDBDECEDECBDF201319650
:1000DC002F01E991EFBFF991E9911895E0E0EABBA6
:1000EC00EBBBE7BBE8BBEFE0E4BBE0E0E5BBEFEF6D
:1000FC00E1BBE0E0E2BBE3BFE2BFECBFEFBDE2E09F
:10010C00EEBDEBE0EDBDECEDECBDE0E0E7BDE6BD3A
:10011C00EBBDEABDE9BDE8BDE2BDE5BDE4BDE3BDB7
:10012C00E4E0E9BFE0E0E5BFE4BFEAB9E0E8E8B944
:10013C00E0E0E0BFE6B9EDB9E6BF7894F50143D055
:10014C00EEE0E5BBEFE0E5BBF4013DD0EDE0E5BB57
:10015C00EFE0E5BBF30137D0EBE0E5BBEFE0E5BB4F
:10016C00F20131D0E7E0E5BBEFE0E5BBE9E0F0E020
:10017C00E415F50529F4F30131963F014424552487
:10018C00E6E0F0E0E615F70529F466247724F4019F
:10019C0031964F01E9E0F0E0E815F90529F4F50195
:1001AC0031965F0188249924E6E0F0E0EA15FB051E
:1001BC0041F4AA24BB24882499244424552466247D
:1001CC007724BCCFFFCFEC5AFF4F049002BA0895AE
:00000001FF
